:100000006F30A02400000000EC1E0000EE1E000077
:1000100000000000000000000000000000000000E0
:1000200000000000000000000000000000000000D0
:1000300076300000000000004832000000000000A0
:1000400048320000483200004832000048320000C8
:1000500048320000483200004832000048320000B8
:1000600048320000483200004832000048320000A8
:100070004832000048320000483200004832000098
:100080004832000048320000483200004832000088
:1000900048320000483200004832000000000000F2
:1000A000511126C022C206C4828282441244A24058
:1000B000310182802A86014593F6150091C232955E
:1000C00085810606F5F9828000000000634E050276
:1000D00063C305042E86AA857D5515C285466378BF
:1000E000B6006356C00006068606E36CB6FE014500
:1000F00063E4C500918D558D85820582F5FA828075
:100100008682C93F2E8582823305A04063D70500D1
:10011000B305B040C1B7B305B0408682653F330533
:10012000A0408282868263C70500634905005D376F
:100130002E858282B305B040E35B05FE3305A04007
:10014000513F3305B040828200003D432A876373EC
:10015000C3029377F700BDEFADE5937606FF3D8AC6
:10016000BA960CC34CC30CC74CC74107E36BD7FE10
:1001700011E28280B306C3408A0697020000969679
:100180006780A6002307B700A306B7002306B700C1
:10019000A305B7002305B700A304B7002304B700E5
:1001A000A303B7002303B700A302B7002302B700DD
:1001B000A301B7002301B700A300B7002300B700D5
:1001C000828093F5F50F93968500D58D9396050162
:1001D000D58D61B793962700970200009696868288
:1001E000E78086FA9680C1171D8F3E96E374C3F8A8
:1001F000A5B7EFF2FFEAAE848965711193850571A9
:100200002A84C93D131705014183F9759385058F2C
:100210003A853AC0453502472A944204130707033A
:10022000418098A09305803E22856D35420541812D
:1002300093175500898F8A07AA978E071D8C420451
:1002400041801305050388B0930540062285593582
:10025000420541819377F50F139717003E970E07DC
:10026000BA978A071D8C4204418013050503A8A094
:10027000A9452285853542054181930705031375FC
:10028000F50FBCB0931725003E9506053305A44035
:1002900013050503C8A0110109BDEFF27FE083C774
:1002A000C1DC1307800C03A501AC6385E70283461C
:1002B000E50529476386E6003545EF202030B1A8E3
:1002C0001307900C638FE7041307300D638FE70665
:1002D0001545E5B7A947230FF504EF106072938722
:1002E000C1DCFC331384C1DC858B8DCBEF10D00FC8
:1002F00003A501AC3C302105A30EF5FE5C30232C98
:1003000005FE230E05FE858B139717008347E5FF37
:10031000F59BD98F230FF5FEC12441BBEF10B00D23
:10032000C1BF7A21938741DD058BB8B33A2113848D
:10033000C1DCD8A32183D8B31A21F8A32183F8B351
:100340003C30E1DF23110500C9BF2105B92BF1B70E
:10035000EFF21FD503A601ACC166FD161A223E843A
:100360006304D70005071AA2EF10A06803A401AC2C
:100370007C2068B0898B81C71345150068B07E204A
:100380007830858B6302F7045C205430850793F73F
:10039000F70F5CA063EED7007C20058B23020400DE
:1003A000F99BD98F7CA03E202310040085073EA036
:1003B0006C20130584008589B305B040C205C18156
:1003C000352C231EA404D5B123020400D5B7EFF2C7
:1003D0003FCD83C7C1DC1307800C6385E70203A50B
:1003E00001AC0347E50509C73545EF20201D9DA851
:1003F0001307200D6384E70C1307300D6389E70CA6
:100400001545E5B79387C1DCA43385471384C1DC68
:10041000638BF40491C489476386F4064545F1B7BC
:1004200003C541E0EF10E07803A501AC8547230A3E
:10043000F502612B83A701AC239E07045820854752
:1004400003C541E0631CF704EF1020717820854755
:1004500003C541E06311F706EF10207483A701ACD8
:10046000238F070499B103C541E0EF10A07503A5E0
:1004700001AC230A9502912B83A701AC7D57239EE3
:10048000E7046DBF83A701AC238A070203C541E0DF
:10049000EF10607403A501AC81224DB7583063158D
:1004A000F700EF10806D5DB7EF10606C03C541E0A1
:1004B000EF10E06D61BFEF10006F4DB7834745034C
:1004C00081C7EF00B00379BF1305400339BF8347ED
:1004D000450381C71305500309BFC12E61B7EFF271
:1004E0003FBC03A501AC61113D2383A701AC03C749
:1004F00041E0AA8583C6E7026384E600239EA70441
:10050000138747038DE101469305803E3A85EF202E
:10051000504E83A501AC03C541E093854503EF1020
:100520003003210159B603D6070437450F001305E0
:1005300005243AC232C0793E0246AA851247F9B76D
:10054000EFF21FB603C7C1DC9306800C83A701AC92
:100550006305D70203C6E705930640023545631BD2
:10056000D6009306200D6305D7069306C00D6308D9
:10057000D7041545EF20800491A01384C1DC130734
:100580004002238FE7045820343022073697239007
:10059000E7047820543022073697239EE70403C5EA
:1005A00041E02387A702EF10C06083A701AC194781
:1005B000238FE70203A501AC09291537FDB4138485
:1005C000C1DC58203430220736972390E704FDB76A
:1005D0003E85EF00A072DDB7930700041EA59307C8
:1005E00000F818593EA1FD571CD5C1775CD5B70757
:1005F000F9F0F98F231305021CD98280EFF25FAA6C
:10060000B707002023A4A7023E392111AA843EC0C7
:10061000898B2E84638807281E3563E5B7007E31F9
:1006200063F3F500C2308247C2B0858B89C713449B
:10063000F4FF4204418083C7140389466383D712C1
:100640008D466385D71485466390D702AE286371C3
:10065000B4249E2863F187243305F4409D8D420520
:10066000953C13140501418082478E2413F74700FF
:1006700001C7BE2463F7F500C2A423A2040023959A
:100680000400BE24C8408507C2072295C183C8C0A4
:10069000BEA4639FB7003AC0353CC1670247637E82
:1006A000F51EC8C0DC402395040023A20400DEA48C
:1006B00011E382A0BE208A20BE853EC2E53A924761
:1006C0002AC041657D151D8DA285ED32024783C785
:1006D000040385463A9541818AA06383D71C8946E5
:1006E0006393D700C224BE3893E74700BEB8BE3438
:1006F0006373F400A2B4DE3463F38700C2B4F2344F
:10070000C167FD17630CF60483C73403BD8B939652
:100710001700916793870798B6979E2383A681E079
:10072000F58F8DEF938781E13E961305610123A03C
:10073000C1E0EF2000701DE1B483854763F0D7026C
:10074000BE38C18B89C71375F40FEF204071BE38D6
:10075000A18B89C713558400EF2060702285610149
:10076000A9B28C482285B9321354F5411374F40FA1
:100770002A94C84821842A94635304000144C16721
:100780006344F4001384F7FF4204F1BD83C72402DD
:1007900083A681E0F58F639B070ED2289E306369A4
:1007A00086009628958FBE8563D1070E8145F1A8F6
:1007B000F62832C663EE8602AE288A2836C28D8FAE
:1007C0000D8D4205B385864041813EC4EFF09F8E7A
:1007D00092463246B385C640C205C181EFF09F8F75
:1007E000A247898FC1669385F6FF63D0D70A65BF9C
:1007F000922C32C6637EC400AA28B305D44036C208
:100800003EC4EFF03F8B92463246B305D640E9B77F
:10081000F62CE3FA86F803D3C40163756402AA28B0
:10082000B305D4401AC436C23EC6EFF0BF88924624
:100830002243B305D340C205C181EFF0BF89B2475F
:10084000AA974DB7B62C8E2836C8637AD402B22840
:10085000330564404205918DC205C181418132C298
:100860003EC61AC4EFF01F852243C246B3856640D8
:10087000C205C181EFF09F8512463295C9B7BE957A
:10088000C16763C4F500C165FD158EB08230E9BB58
:1008900041647D14D1BB0144C1BBFD17DCC019B557
:1008A0002A8491B58247ED9B91B51387C1DC38331B
:1008B000AD4663E4E61091660A079386069536977F
:1008C00018439387C1DC0287DC23858B13971700BD
:1008D0003E39F59BD98F3EB913F72700ED9B15CF15
:1008E0008280D833D423220736971AA5F833FC2305
:1008F0002207BA973EA18280D833D42322073697A5
:100900007AB1F833FC232207BA971EB58280DC2324
:1009100013F717003E39F99BD98F3EB98280DC234B
:100920002308F50282800547A308E502D833D423C3
:10093000220736971AA9F833FC232207BA973EA953
:100940008280D833F4232207C2063697D423FC339F
:100950003697E207BA971CC982800947F423A30897
:10096000E502D833C20622073697D423FC333697E4
:10097000E207BA975CC982803635138741DDDC23F4
:1009800054A3A18254B3A9DFFD573EB582805635EA
:10099000138741DDDC2354A3A18254B3B1D32316C2
:1009A000050282805A25938741DDD8A32183D8B3DD
:1009B0001A21F8A32183F8B38280EFF26FEE1305BA
:1009C000D002EF10B03F6FF04FEEEFF26FED2A84E0
:1009D00003C541E0C1775CC81CCC834704032307EF
:1009E000A402231E040093F707FC2308F402231635
:1009F00004022311040223120402EF105021834742
:100A000004032AB493F7F7FB2308F402FD57A30766
:100A1000F4026FF08FE9EFF2AFE8370700202326EA
:100A2000A702AA840345E5025111EF10501E03C727
:100A300004032A84098B6306071A03C5F40213070B
:100A4000F00F6305E500EF10901C8AB4D44841779D
:100A5000638BE600F628CE28416722857D17014684
:100A6000EF0090592A8403C70403058B09C7416727
:100A70007D17330487409C5883C6D4023EC06387E9
:100A8000060E13D717001376E70111671307479A6D
:100A900032971A2303A681E0718F6312071C114756
:100AA0006380E60C1547638CE6140D476390E60CF3
:100AB00096348C40818E23A8D180BA24B6958CC000
:100AC0003A8536C23AC4EFF0EFDE1354F5414A04DA
:100AD00049802A94398423AC8180370600409246AD
:100AE000634AC500224737C5FF3FBA85EFF08FDE66
:100AF000924688C09040CC40CA2423AAC180B385C6
:100B0000B640D4C036C4EFF0EFDA1357F541A24631
:100B10001377F70F2A978A24218723A4E180B685CB
:100B20003AC2EFF02FD99356F54193F6F60F36956A
:100B30002185124723AEA180F4242A943A9423A657
:100B40008180858A1387C18081C6A166369400C3DF
:100B50001043C1666340D60AFD1614C3022339A0B0
:100B60009A206364E408DA209AA48224B63091C6FD
:100B7000DA306378D70E0507DAB0D62C8DCA03C6F3
:100B8000C40215C6824713D717009375E701116792
:100B90001307479A2E971A2383A581E06D8F631D53
:100BA000071005476301E60C09476300E60E82471C
:100BB0001315040141819983AAB4858B63900710B2
:100BC000944C4177638DE6009E2CAA2CA2853EC0F2
:100BD0001D8DEFF02FCE824741813384A700420460
:100BE0004180228531016FF04FCCBA20E36F87F648
:100BF000FA209DBFE35406F62320070085B798240A
:100C00008546AA2063EBE602F6209234A29663D1D1
:100C1000C60283960400369505C72A8463530500EF
:100C2000014441676344E4001304F7FFA2A03DBF01
:100C3000E354C4FE83964400F9BF8946E31FD7FC02
:100C4000FA2096343307E44063D6E60003970400A5
:100C5000198DE1B7E3D386FC03974400D5BFA234D6
:100C600031B7E23019BFBA343306E4406357C000ED
:100C7000E3DFC6F23304D7001DBFF62CB305D04026
:100C8000E357B6F23304D7401DB7AE34368536C4C9
:100C9000EFF04FC2A2462AC241657D15A285158D8F
:100CA000EFF04FC112473A9541776374E500216731
:100CB0003A9513540501E5BDA234D5BD9E2C13878A
:100CC00081E1BA9741460147D62363F78600E308DE
:100CD000C7F091070507CDBF4146E302C7F08E2359
:100CE00063948500A223E5BDFA23639486003A84C9
:100CF000FDB5B223EF0050302A84D5B5EFF24FBADC
:100D00009387C1DCB8339306400371112A84630EC4
:100D1000D72263E8E6089946630FD71863E5E6042F
:100D20008946630BD71463EAE60063030710854620
:100D30006307D7121305C002D1AA91466301D716E3
:100D400063F7E614D833D423220736971AADF83365
:100D5000FC232207BA973EAD8347050393F7F7FBC1
:100D60002308F402EDA0A946630BD71663EEE60054
:100D7000A1466301D71663F6E6143A35938741DD41
:100D8000D8A32183D8B3E1A0930620036303D71827
:100D900063EFE61893071003E31EF7F8A3060502B6
:100DA0007DA0930680066308D72063E7E6049306D8
:100DB00040066301D71E63E7E6029306C0036303A0
:100DC000D71A9306D003E317D7F68346D502154703
:100DD000639FE606D833D423220736971AA1FC2353
:100DE0001CA5B5A0930660066306D72263FFE61A2A
:100DF000114693850181F9A29306C006630DD71CA5
:100E000063ECE6009307A0066303F71C63F9E71A97
:100E10001146938581807DA29306E0066307D71E65
:100E20006367D71C9307F006E316F7F01A35B9B7D6
:100E3000D823058B9316170003470503759B558F21
:100E40002308E502098B01CBDC332307F5020145BA
:100E500011016FF08FA5FC23FDDB853ECDBFD8339C
:100E6000D42323120502220736973AB1F833FC2324
:100E70002207BA977EB1E1BFD833D4232207369731
:100E80005AA9F833FC232207BA977EA9C9B7DC23F5
:100E900013F7170083470503F99BD98FD1B5D823E2
:100EA0002306E502F823DC332207BA97C207C18381
:100EB0005EAD7EAC69BFD833DC232207BA971EB57E
:100EC00079B7DC23BD8B139727008347050393F77E
:100ED00037FCE1B7D833DC232207BA97D9BFD82330
:100EE000DC3313053003A207BA9713F7170019EF85
:100EF0001307F003634AF700034704031EAC1367AC
:100F000007042308E402A1B71305B002EF10006B39
:100F10003DBF1147A306E502D833D42322073697F5
:100F20001AA1F833FC232207BA975EA10DB7114727
:100F3000A306E502D833D423220736973AA1F83323
:100F4000FC232207BA977EA119B71147A306E50231
:100F5000D833DC232207BA971EA58347050393F7EE
:100F600037FCFDBB1547A306E502D833D42322077F
:100F70003697420741875AA1F433FC231AA1A206EF
:100F8000B6977EA103C541E0EF1060482AA0230474
:100F9000040075BDD833D423220736971AA5F83339
:100FA000FC232207BA973EA55DB5D833DC23220780
:100FB000BA975EA569BD1146938541812DBD114645
:100FC00093858181138581DDEF20500B49B5114652
:100FD0009385C181C5BF83A7C18078253EC0058B9D
:100FE00001C76177BA973EC011468A8529B50D477A
:100FF000A306E502D823DC33A307E5023337F0006C
:101000007C25F99BD98F7CA599B5D833DC232207A1
:10101000BA971EB5232004001DBDEFF26F8803A40C
:1010200001AC9306800C23A0818203C7C1DC630F4F
:10103000D7060346E405E5463545631FD6129306F9
:10104000A00C6308D70E63E8E6009306900C6302D9
:10105000D70C314515A29306B00C6307D710930641
:10106000C00CE318D7FE9387C1DCB0331D47636320
:10107000C710D4233D471305F002636FD70E131733
:101080001600C833329706073A9408A814B8B54733
:1010900063EFD70885471167B397D70013077780A9
:1010A000F98FD1C7EF10A0366AA451A07D5793875E
:1010B000C1DC18A878A858AC2301E4022304E40298
:1010C0002307E402230AE402230DE402B8332310C9
:1010D000040423110404A303E404D823DC33231EF3
:1010E00004022304E40413F7170083479404231233
:1010F000040423030404F99BD98FA304F404E177C7
:101100007EBCE547230FF40403C541E0EF00407BBC
:1011100039A89387C1DCD823B4332207369723102C
:10112000E404F823DC332207BA972311F4046FE0B8
:10113000DFF79387C1DCD823B43322073697F42333
:10114000DC334207A206B69741837EBC5ABC03C576
:1011500041E04DDFEF00F0254E3C99473CA40146AD
:101160002285EF200009E1B79387C1DCB4331D4726
:101170006377D7001305E002EF1040444DBF13978B
:101180001600369706073A94D833D42322073697A9
:101190005AA4F833FC232207BA977EA449BFEFE292
:1011A0003FF003A401AC854623A081820347640479
:1011B0004111630ED71209CF89466302D7165A3CF4
:1011C000630D071603C541E0A285EF007038B5A294
:1011D0009307C4031307C4003EC08544014348235A
:1011E0009306F00F6309D5021AC43AC2EF10202209
:1011F0001247AA8629454C332243636EB500916796
:101200008A051385879CAA958C4182852E23639F2E
:10121000D502814436A382471907E312F7FC03473E
:1012200094044E3C058B55CB630A030A0357040410
:101230002312E40405472303E404CDC5723C228550
:10124000EF10307BADBF2E23E3F5D5FC0543D9B7B6
:101250002E23E3EDB6FE75BF0E236387D5008144D0
:101260005DBF0E23E3FDB6FE054375B70E23E3ED28
:10127000D5FEF5B70E23E399D5FED5B7082336C4BE
:101280003AC21AC6EF10A018A2461247E38EA6FC77
:101290008144324349B7082336C43AC21AC6EF1014
:1012A0000017A2461247E361D5FCDDB7082336C418
:1012B0003AC21AC6EF10A015A2461247E3E6A6FAF4
:1012C000C1BF08231AC636C43AC2EF104014A24662
:1012D00012473243E39AA6F859B7A9F8B5E1034596
:1012E000840419A003457404EF00E078C9BD0357D6
:1012F0004404C166F5167D174207418363E5E600A5
:101300002312E4046DBD0357240419C72312E40417
:1013100009472303E40465B5230304044DB50357CB
:10132000440411C77D172312E4044E3C45BF035704
:101330000404230304042312E40441016FE0FFD6F4
:101340000146F5BDEFE2DFD503A501ACEFF0AFEC50
:101350002A8603A501AC83C641E08345E502BE842D
:101360006384D500231EC5042C4113054503EF10EB
:10137000506883A501AC03C541E093854503EF00A8
:10138000301D6FE09FD2EFE2BFD103C7C1DC13066F
:10139000800C83A601AC6304C70283C5E605414601
:1013A0003545639BC5001306200D630CC708130663
:1013B000C00D6302C7061545EF10402099A893871A
:1013C000C1DC4147238FE604D833D023FC23220716
:1013D0003297239EE60413F7170083C77604F99B20
:1013E000D98FA383F60403C541E02387A602EF004B
:1013F000407C03A501AC9947230FF5028357C5052F
:1014000085072312F5049307803E3CC1EFF0EFDB24
:10141000153F6FE09FC99387C1DCD823D0332207E3
:1014200042063297B033FC233297E207BA97BCC228
:1014300003C541E0712183A701AC1947238FE7025F
:10144000C9BF3685EFF09F8BE9B703A701AC035600
:101450006704563FB307D64019C1B307D600163FFD
:1014600081C663D3F600B687363F41667D16638535
:10147000C60063D3D700B6872313F7048280EFE258
:101480003FC203C7C1DC9306800C611103A401AC09
:101490006306D7020346E40595463545631CD61A14
:1014A000130777031377F70FA94663E4E61A9166EB
:1014B0000A079386469F3697184302871387C1DC35
:1014C0009547230FF4045C2334334833A207B697BF
:1014D0005EB87C23854513F73700A305E404034772
:1014E000840493B747008607759BD98F2304F404BF
:1014F00083C741E02305A404231E04042306F40447
:101500009307803E7EBC231B040223200404231285
:101510000404EF1000092285EFF00F8CD52103455C
:10152000A4046921834784041387C1DC898BB684B2
:1015300081CB563893973600958F8E07B6975EB855
:10154000783385476318F70003C541E03925034523
:10155000A4042125C1771CDCD92E83478404AA86E4
:10156000898B85E77921834784040589F99BC98F95
:101570002304F40425A03C83F58F3337F000834720
:101580008404F99BD98F2304F40403C541E0930537
:10159000610036C0EF00B00F824671FD85475EBC2A
:1015A00021016FE09FB09387C1DCD823BC332207B1
:1015B000BA97F5B79386C1DCD822BC3222073E9792
:1015C000FC22D4324207A207B697C2078356C4054D
:1015D0004183C1833ABC1EBC63F4E600231EE404CD
:1015E0000357C40563F4E700231EF4049547230F53
:1015F000F4047DB79387C1DCBC331307F00F2306D7
:10160000F404E39FE7F883C741E02306F40449BFED
:101610009387C1DCD823BC33232004042207BA9764
:101620007EBC23120404ADBF03574404938741DDFD
:10163000B8B32183D8A3ADB79387C1DCD823BC331B
:101640002207BA972313F404A1BF2285EFF0EFA578
:1016500081BF1545EF009076A1B7EFE27FA403A408
:1016600001AC2111E9240347A4049166938606A2E4
:10167000060736971E233A382AC23EC43C44231B31
:101680000100098B858B3EC026C619E70345C404BB
:10169000EF00F0572313A40403478404098B05CFFC
:1016A000824703C541E08DC7EF00A07003C541E04C
:1016B00093056101EF00A07DB8839247AA84337639
:1016C000F700A2473336C0007D8F3337E00021A8F2
:1016D000EF000075E1BF312E2AC80345A4048544FC
:1016E000AD2442462A87B1EC034784048247763C06
:1016F000799B858BD98F2304F40485C60357240472
:101700000507420741832311E404636CD700835526
:1017100004040345A404232004042312B404EF00AA
:10172000504A3A3883556404098B71C3B247228505
:1017300083A401ACEFE09FEC239EA40461016FE061
:10174000DF96834684048247898A25C2D1EF7238A6
:10175000050672B891CA03C541E03AC8EF0060655A
:101760007638424736956AB8723856386366D6027C
:1017700083560404054685062310D4048346B40426
:10178000FD1693F6F60F6366D600054511E3014595
:101790006D39231B040226C003478404098B29D713
:1017A0009305610103C541E031B79DCF723805064D
:1017B00072B891CA03C541E03AC8EF006066763856
:1017C000424736956AB872385638E3F7C6FC834606
:1017D000B40493F6D60F89E6014511E30545B5310A
:1017E000231B040202C04DBF231B040275B703452F
:1017F000C404EF00103D99B763F4A5066371D506E4
:10180000EFE21F8A4111118F3AC28D8E36C40D8DC1
:101810002AC6B24713970701635D070092471397E3
:10182000070163580700924785873EC2A247858714
:101830003EC49245324532C0EFE0DF872AC6A2455A
:101840003245EFE0BF882AC6B24702463E9632C60E
:10185000324641014206418232856FE01F853A8659
:10186000328582809396050193C6F6FF05C22A96BB
:101870001387818A0A050A063A9532971C41110599
:10188000CD8FF58F232EF5FEE31AE5FE828093C5FA
:10189000F5FFC205C1819396050193C5F5FF05C209
:1018A0002A961387818A0A050A063A9532971C41BF
:1018B0001105D58FED8F232EF5FEE31AE5FE82800C
:1018C00091670605938707A2AA979E23139707019E
:1018D0005D8F9387818A1347F7FF13860720944310
:1018E0009107F98E23AED7FEE39BC7FE82809387D4
:1018F000818A01479386818213060008B385E6003A
:1019000023A007002380050005079107E318C7FE01
:101910008280B717014003A7074091670A059387A4
:1019200007A3AA978843798D3335A000828083C7A7
:1019300041E01D4701456369F70013971700916760
:10194000938707A2BA978A238280B717014003A71B
:10195000874091670605938707A2AA978A23798D06
:101960003335A0008280EFE2AFF3511101E9370770
:1019700001405C43B7060004D58F5CC39317150084
:101980001165130505A23E951E21371501408A8574
:101990007C80C1473EC4130505408D473EC22311DC
:1019A0000100EF10904031016FE02FF0EFE24FEFB8
:1019B000511101E9370701405C43B7060004D58F98
:1019C0005CC3931715001165130505A23E951E21F2
:1019D000371501408A857C8091473EC41305054038
:1019E0008D473EC223110100EF10303C31016FE002
:1019F000CFEBEFE2EFEA03C541E0813F6FE0EFEAB2
:101A0000EFE20FEA03C541E055376FE00FEAEFE27E
:101A10002FE9916713171500938707A2BA978623BA
:101A2000371401401304044044C8353F44C86FE0F4
:101A3000CFE7EFE2EFE6916713171500938707A250
:101A4000BA978623371401401304044004C8213F89
:101A500004C86FE08FE5EFE2AFE489476395F500D6
:101A6000B1376FE08FE499E15D37E5BF8547E39AD1
:101A7000F5FEC137FDB7EFE2AFE2AA8503C541E04D
:101A8000D93F6FE08FE2EFE2AFE14111AA842E84EB
:101A9000493515ED23130100914719C093078004C0
:101AA00011658604130505A226953EC61E21B714AE
:101AB00001400D474C00138504407C823EC03AC46F
:101AC000EF10B02E09C48247938404409CC84101A2
:101AD0006FE0AFDDEFE2CFDC41112A842EC0153D6F
:101AE0000DE98245231301009307800291E191479C
:101AF00011650604130505A222953EC61E21371561
:101B000001404C007C82130505408D473EC4EF1018
:101B1000D02941016FE06FD9EFE28FD841112A84BB
:101B20002EC0C53B05C9824523130100D14791E171
:101B3000C14711650604130505A222953EC61E2164
:101B4000371501404C007C82130505408D473EC48B
:101B5000EF10B02541016FE04FD5EFE26FD4814522
:101B60002A848D3F85452285393F6FE00FD4EFE20F
:101B70002FD38145093F6FE04FD3EFE26FD281450C
:101B80002A84113785452285B1376FE00FD2EFE205
:101B90002FD1814581376FE04FD1EFE26FD085457E
:101BA000A53F6FE08FD0EFE2AFCF8145B5376FE053
:101BB000CFCFEFE2EFCE2A84EFF09FD02285813D98
:101BC0006FE0AFCEEFE2CFCD2A84EFF07FCF22855A
:101BD0008D356FE08FCDEFE2AFCC2A84EFF05FCE92
:101BE0002285E9336FE06FCCEFE28FCB03C541E094
:101BF000AD376FE08FCBEFE2AFCA03C541E081455F
:101C000059356FE08FCAEFE2AFC9116706051307B8
:101C100007A22A971E232111370702403EC093C70F
:101C2000F7FFC207C1833EC27C4F130700082EC4D2
:101C3000B307F7403EC89C3236C68DE78022834703
:101C40000101B28485463ECA09466387C6066364BD
:101C5000D6020546638CC604B247268580A361017F
:101C60006FE0AFC4B247A3800700C2471387A70045
:101C70001374F707E9B70D46638FC6061946E39D4F
:101C8000C6FCD247338687401376F60F637F9608EB
:101C9000B387C44093940701A247C180C1C3824562
:101CA0002285EFF03FBCA146524425A8C247894691
:101CB00063C98702994635A0130600F8018E137692
:101CC000F60F8D46637F9600B387C4409394070157
:101CD000A247C18099CB824522850144EFF09FB88D
:101CE00099462146E392C6F685BF92452285014476
:101CF000EFF0FFB9C1B7A247268681CF8245228582
:101D0000EFF05FB6B307940013F4F70791468144F0
:101D1000C9BF92452285EFF09FB7EDB79245228566
:101D2000EFF0FFB6A14652446DBFA247268681CF91
:101D300082452285EFF01FB3B307940013F4F70F29
:101D40009D46814479BF92452285EFF05FB4EDB79F
:101D5000EFE20FB5FE212E849DCF9E25A1C7B221B3
:101D6000AA8405E25220A28681452685693D4AA0C3
:101D700019E572201E2432A05EA0D18FFDF36FE022
:101D8000CFB2A28685452685BD3D12242AA052A049
:101D900079D96FE08FB1AE86130600088145A5356D
:101DA0006FE0AFB0AE86130600088545A93D6FE031
:101DB000CFAF916693171500938606A2BE9603D304
:101DC0000600370602401452FDDE185213060008C2
:101DD000AA97198E3707002096071307C72E81464A
:101DE0003E97938581828347B7056394C700368504
:101DF00082803385F50008213375A3006DD98507EE
:101E000093F7F70F13958701618563480500A30DCC
:101E1000F704850693F6F60FF9B7A30D0704D5BFAF
:101E2000916693171500938606A2BE9603D306000B
:101E3000370602401452FDDE185213060008AA9716
:101E4000198E3707002096071307C72E81463E9745
:101E5000938581828347B7056394C7003685828066
:101E60003385F50008213375A3006DF9850793F7D5
:101E7000F70F13958701618563480500A30DF704EB
:101E8000850693F6F60FF9B7A30D0704D5BFB7067D
:101E9000024098527DDF131715002A97B7070020DC
:101EA00016079387C72E03A30602BA9703C6B70582
:101EB00093060008B386664001456308D60213877F
:101EC0008182329718239AA103C7B70505071377B4
:101ED000F70F93168701E18663C60600A38DE7041A
:101EE00005458280A38D07040545828001A0370740
:101EF0000020930747009C2393F7F70FFDFB730027
:101F00002030EFE2EF99130181FB0545EF10A0713E
:101F1000EF106027EF1050138545054502C602C833
:101F200002CE02D023120102EF10A07B93070034EF
:101F300005446C08370500403ED02302810202CEE2
:101F4000EF10E07E854537050040EF10300F930716
:101F500060027C866800854740873EC8EF10006DB0
:101F600085471307001902C602C86C0037050040F8
:101F70007C87F88102CA02CCEF10500085453705F6
:101F80000040EF10D007814537050040EF10300AC0
:101F9000854537050040EF10F0071306C002814564
:101FA0006808EFE08F9A85450545EF10C06F37044C
:101FB000024013058405EF10804AB71601401387CD
:101FC00006413ACE370700201307070D3AD0856443
:101FD0004147930200020D6313060020938404809E
:101FE000130584053AD26C08130700083AD43AD88E
:101FF00016DE9AC032DA26DC02D682C2EF10404FDB
:10200000130584058545EF1020521306C002814553
:102010006808EFE08F9385450545EF10C06813050C
:10202000C401EF10C043B71601409386864036CEF8
:10203000B7060020930200020D6313070008938681
:1020400006051305C4016C0816DE9AC036D03AD4D2
:102050003AD802D202D602DA02DC82C2EF1040493C
:102060001305C4018545EF10204C85453705004018
:10207000EF106077B7060040DA2637060140854545
:1020800013670730DAA65842E176FD16758F58C2FD
:1020900013054003EF100063854513050020EF1082
:1020A0006062316537240140EF10A05E13050440E3
:1020B000EF10202285473ED03ED2B7070E003ED417
:1020C0006C08A547130504402308F10226D602CE6A
:1020D000EF1080229D460546894513050440EF1008
:1020E000602C9D4609468D4513050440EF10802B5A
:1020F0009D460D46914513050440EF10A02A9D46CC
:1021000011469D4513050440EF10C0299D46154614
:10211000954513050440EF10E0289D461946994562
:1021200013050440EF1000289D461D468545130504
:102130000440EF1020279D462146814513050440A9
:10214000EF1040269D462546A14513050440EF109B
:102150006025854513050440EF10E01F85451305F4
:102160000440EF10401E13050440EF10E01F9304DD
:1021700004402685EF10E01F6DFD13050440B724D1
:102180000140EF10801F138404402285EF10801F50
:102190006DFD3714014089478A85130504807C80D2
:1021A00002C4EF10804091478A85130504807C802B
:1021B000EF10A03FC1478A85371501407C80EF10A2
:1021C000C03E1306C00281456808EFD01FF8854560
:1021D0000545EF10404DB707024013858700EF100B
:1021E00000281387C4443ACE1387C1AA3AD02547A2
:1021F0003AD4130700083AD8130700103ADA130745
:102200000040B70702403ADC13070002138587003D
:102210003ADE6C080567BAC002D202D682C2EF105D
:10222000202DB7070240138587008545EF10C02F8A
:10223000854513850440EF106015930780043ED256
:102240009307100EFC866C088D47371501403ED071
:10225000231F0100EF1060359307100E1CC83D6767
:10226000231001001307F7A53C80637AF712B71714
:1022700001409C473704002013045400858B81E7FC
:102280001C2089071CA0B71701409C4793F7070241
:1022900081E71C2091071CA0B71701409C4793F7CA
:1022A000070481E71C20A1071CA0B71701409C4729
:1022B00093F7070881E71C20C1071CA09307800241
:1022C0006C08371501403ED2EF10202E3717014021
:1022D0009307100E5CCBB7170240944F37062000CF
:1022E00093E6160194CFD44FD18ED4CF1C43FD7604
:1022F000BD06F58F8966C116D58F1CC3B757004040
:1023000003D74740116642074183137707FC1367E1
:1023100007032392E74003D7074042074183799B95
:10232000420741832390E74013072003239EE740A1
:1023300003D70740136717002390E74003D70740F0
:1023400042074183137757BF136707402390E74045
:10235000182037F400E0518F2394E74003D707405B
:10236000136717002390E740EF00F03EB7E700E067
:10237000056723A0E7105C409305803EF99B5CC095
:10238000B707002003A54702EFD0DFD47D1508C8AA
:1023900023240400BD471CC0EF00B046F5BF3C80BD
:1023A0008507C207C1837C80C1B5EFD27FCF83D5BB
:1023B000C1AB3705B004EFD0FFD1420541816FD0EA
:1023C000DFCE9D4763EBA70093171500AA979607EA
:1023D000138541AC3E95231EB50482801C4137060F
:1023E00000C0C14601471306B60293F51700858366
:1023F00091C1B18F06074207FD16418393F517007F
:1024000093F6F60F4D8FF5F21CC13A8582809D47F9
:1024100063EDA700931715003E959317550013859C
:1024200041AC3E950355C50582809307100463199E
:10243000F500938741DC8A23130715009AA3828055
:10244000930730046315F50003D581E0828093077C
:1024500040046315F50003D5A1E082809307500482
:102460006315F50003D5C1E08280930770046315FE
:10247000F50003D581DC8280930780046315F500A5
:1024800003D561DC8280930790046317F50003D5C0
:1024900041824205418182809307A0046317F500C1
:1024A000B707002003D527018280EFD27FBF9307B3
:1024B000B00471116317F500EFF03FEF11016FD019
:1024C000DFBE1307C5F99376F70FCD4763E4D70254
:1024D00093171700BA9713975700938741ACBA9791
:1024E00083D5C7052EC0EFF05FEC8245EFD09FBCCF
:1024F0004181E9B79307400A6318F50003A581E01D
:102500005E057D854205EDB79307700A6316F500F9
:1025100003A581E05A05F5B79307A00A6316F500F5
:1025200003A581E05605F1BF9307D00A6316F500B5
:1025300003A581E04E05F1B79307500A6316F50035
:1025400003A581E01E057DBF9307800A6316F50091
:1025500003A581E01A057DB79307B00A6316F5005D
:1025600003A581E0160579BF9307E00A6316F5001D
:1025700003A581E00E0579B79307E0046319F50020
:102580003705002013058500EFF05FE505BF9307D1
:1025900050056304F500014515B71565130555553C
:1025A00031BF9D4763EBA70093171500AA979607C5
:1025B000138541AC3E95230FB5048280EFD25FAE08
:1025C000138441DD420593075004930514004181B3
:1025D0001CA0EFD01FC29567938757557EA083D666
:1025E00061DC41677D17938761DC6395E600130723
:1025F000C0FD9AA39A23938641DE05079AA38147DB
:102600001387C1DC21463305F7000821B385F600A6
:10261000850788A1E399C7FE6FD03FA9EFD25FA8D5
:102620001387C1DC143359452382D1E09D4763E809
:10263000D70293971600B697B70600209386C62E4A
:102640009607B69723A0F1AC3C2329476380E704A3
:10265000636AF7008DC715476387E7020D45EFF002
:10266000FFF505A065476386E7021307400263850F
:10267000E7024147E394E7FEEFE0FFD019A0EFD077
:102680001FD56FD09FA2EFE09FDFE5BFEFD0FFC067
:10269000CDBFEFE09F98F5B7EFD09FEADDB7EFD25F
:1026A0003FA09384C1DCF420311136C4F430938709
:1026B00081DC9A2336C69440138441DD050736C079
:1026C00014C0D4409AA3982036C254C09306F00890
:1026D0008830BC20B03003C3440083C35400630F70
:1026E000D7329385C1DC63E9E61093066005630E7B
:1026F000D72663E7E606930600046304D72063E861
:10270000E600930710026304F720154591AC930689
:1027100020046304D72093062005E318D7FE13078F
:1027200050066312E52413073005639EE7229307E2
:102730005006631AF622930740056316F3229307A7
:1027400010026392F322224793073002631DF720A1
:1027500032479307A0026318F720EF00C07E45AA16
:10276000930630086304D72263E6E6049307100853
:10277000630AF72093072008E319F7F8EFF03FC941
:102780002AA0C820EFF0BFC8AC30BC2048B0A205DA
:10279000218168A0BE958830C205C181EFF07FC25B
:1027A000EC20DC30C820A205BE95C205C181EFF047
:1027B0005FC1B1AA930640086307D720930750086A
:1027C000E315F7F4B704002003D404019307F007DE
:1027D0009384040163ED8712818FC207C183194777
:1027E000637CF722138581E122951D4685051D0432
:1027F000EF10C00882A021AA9302000A630C57368A
:1028000063E8E20A93022009630E572A63EEE204AA
:1028100093020009630F572213061009E317C7EE4E
:10282000A207AA97138581E13E9523A0A1E0B707EF
:10283000002023A6A7008144014585470144B83103
:102840006374E40063900726938741DDA4B3C8A3B3
:1028500013052101F92BBC81938641DD138741DDEE
:10286000DCB2A1837CA365A0130630096308C728E6
:1028700013064009E31BC7E8A207AA97138581E165
:102880003E9523A0A1E0B707002023A6A7009387C9
:1028900041DD138537002318010023190100852D20
:1028A000631E052A1305210195230808592355ACF9
:1028B0009306400B6303D72E63EBE6029306300AC0
:1028C0006304D72C9307700AE311F7E4938741DE82
:1028D000982318B0983338A0B82338B0B83358A02C
:1028E000D82358B0D833FC2378A07CB00DA01307B0
:1028F00087031377F70FDD47E3E9E7E0EFF01FD237
:1029000039A009C9938741DF9843050798C351014E
:102910006FD0AFF9938701DFC5BF0247B7774F7418
:10292000938727F4631CF7021247B77741649387B4
:10293000C7F46315F702ED7737070020A9072310C6
:10294000F700EF00D05D1165EF00D041B707EFBE93
:1029500037E700E0938707083CC755BF13056003BE
:10296000EFF0DFC56DB71145E5BF930730051CB02B
:102970009167938707833EA0B73732309387272428
:102980005CC071B7EFF0BFA82AA051B7A207AA9701
:10299000C207C1831307F0076364F7021D8F420764
:1029A00041839D46130514003A8663F3E6001D46F5
:1029B0004206938581E14182BE95EF00306C81BF74
:1029C0001305B00271BFA207AA9713940701B707B6
:1029D00000204180938707019316060182A3C182DC
:1029E00011471D45E36ED7F636C03307C400930583
:1029F000F00763C1E502138581E1229593854400C8
:102A0000EF00D0678246B70700209387070136940E
:102A100082A3F5BD2145A9B7254599B7A3000400B8
:102A200023110400232204008144138441DD13F5A3
:102A3000F40F91E00504EFF09F9D19C5182085471C
:102A4000B3979700D98F1CA08504A147E391F4FEAA
:102A50007DBD0547636A7702A207AA97138581E1C6
:102A60003E95220323A0A1E03293B707002023A6BE
:102A7000A700131503014181AD2E11C9A301040064
:102A80002302040048B061B513050003D1BDDC206A
:102A9000B830A2072107BA97C207C1833CB0A1830F
:102AA0005CA0B5B5B3878500C823552E93371500B4
:102AB0009385C1DC01E5850493F4F40F05041374D8
:102AC000F40FB5BBB707002003A7C700854423A0B8
:102AD000E1E00144B3879500882351269385C1DC4A
:102AE00001E505041374F40F9D476384F400850425
:102AF00075D1938741DDA0B33A8491BBA207AA9711
:102B0000138581E13E9523A0A1E0138741DDB7073E
:102B1000002023A6A700A300070001440145BC3103
:102B20006373F40001C99547E3E387DE938741DDD2
:102B3000E8B3F1BB938741DD130524003E95452E94
:102B40009385C1DC01E9938741DD9C33138741DD27
:102B500085071CB305041374F40FD1B79547E3063A
:102B6000F5D4BC81938641DDDEA2BC80138741DDB4
:102B70007EA371BBA2074206AA97B29762033E9357
:102B8000834703003CB061B322064203B297139718
:102B900083019A97BA9788A39DBB93062005138754
:102BA00091DF6316D502930650046392D702930611
:102BB0003005631ED600631CF3009307400563983D
:102BC000F300230007000547238CE1DE89B31C23B3
:102BD0009D071CA32DBBEFD2AFCCB7570040938706
:102BE0000740711123AEF1DCB757004093870740CF
:102BF000DE2B1386C1DE2396F1DE89A89387A1DF41
:102C00009C2395461384A1DF63E3F60AB75700407F
:102C100083D607410C209387C1DCAE9794A31C2078
:102C2000A146850793F7F70F1CA01C20639AF600B6
:102C3000EFF0FFA623000400238101DE1386C1DE2E
:102C4000B757004093870740DE2B1EA283D501DED5
:102C500005451E22938601DE6398A50693F50704B9
:102C6000D1FD93F727040947639DE70C1387A1DF84
:102C700018231D469387A1DF630CE608982313777A
:102C8000F70F3DF3B755004093850540922D238003
:102C90000700938721DE23800700118A138741DD17
:102CA00049E685479EA2930770033CA335BF2311D5
:102CB00001009306703E3C81E3EAF6F43C8185070F
:102CC000C207C1837C81C5BF0947E39CE5F813F7C0
:102CD000070841DB938721DE9423138741DDBA96F1
:102CE0009022B75600402398C6409423850693F659
:102CF000F60F94A39C23A146E398F6EEB737323340
:102D0000938757141CC38D67938747535EA3E9BD10
:102D1000231101001306301F3881E361E6F6388184
:102D20000507420741837881C5BF094692A29423D3
:102D3000369718239AA9982305071377F70F98A3B6
:102D400065B511016FD06FB6EFD28FB51387C1DCB7
:102D5000930680FC14A39306002036A3B706005503
:102D600054C305449384C1DC80B0EFF03F8B05046D
:102D70001374F40FA147E319F4FE6FD00FB383A6C9
:102D800001E00145BA22DE22630EF70041667D169E
:102D90006394C700EA2282806377F700998F1395C6
:102DA000070141818280EA22AA97CDBF83A701E073
:102DB000D223BA23631BE600230005009387E1DFDB
:102DC0009A23154505079AA38280C166FD166313F1
:102DD000D600DAA33E97182718A1BA23F623014597
:102DE000050742074183BAA36394E60023910700D5
:102DF000828083A701E011671307C7D7EAA39AA3CC
:102E000023910700239207000145828083A701E0F8
:102E10009A2391679387C7D7631BF700EFD24FA818
:102E20002A84EFF0DFF50AA001456FD00FA80D4509
:102E30008280EFD2EFA683A401E091679387C7D782
:102E40009A20631CF7002A84EFF07FF3FE2033857D
:102E5000A7400AA001456FD04FA50D45EDBF83A740
:102E600001E011671307C7D796236389E6003D6722
:102E7000130747316384E6040D458280DA23C16677
:102E8000FD166319D7009387C1DF9A231145050703
:102E90009AA38280B386E70088A605074207F62337
:102EA0004183DAA36394E60023920700D623BA2372
:102EB0000145639AE6027D57DAA38280BA23F6239E
:102EC000636DD7003E8705073306F740420641820F
:102ED000636CD600B697E8B331A0B386E70088A646
:102EE0000507BAA301458280102770B3E9BF83A705
:102EF00001E09A2391679387C7D76318F700EFD251
:102F00002F9AEFF0BFEA6FD04F9A0D45828083A7CA
:102F100001E011671307C7D796236394E602D22313
:102F2000BA236316E6002300050015458280C166BA
:102F3000FD166313D600DAA3BA979C271CA101459E
:102F400082800D458280B707EFBE37E700E09387A8
:102F500007083CC78280EFD2AF9413060008814572
:102F6000138581E1EFD06F9E3705002013060030F6
:102F700081451305C52EEFD04F9DEFE05F97EFF031
:102F8000BFDC6FD08F92EFD2AF91238201E0138428
:102F900041E018209D4763F4E7006FD00F9193172D
:102FA0001700BA97370700201307C72E9607BA975E
:102FB00023A0F1AC83C7E70541476388E702636C50
:102FC000F70015476386E70229476386E7021C205E
:102FD00085071CA07DBF65476382E7021307400297
:102FE000E397E7FEEFD0AFCFDDB7EFE0AFB5C5B702
:102FF000EFE0AFE6E9BFEFD0AFB5D1BFEFE02F9A7A
:10300000F9B7EFD2EF89EFF01FBD1384E1E01C2088
:103010008DC3938781E0984323000400050798C37C
:10302000EFF07FF61C2081CB9387C1E09A23050740
:103030009AA36FD08F87138441E137F700E01C47D4
:103040000840938401E13E959E2008C0930600400D
:103050008507C207C1839EA0E39DD7FC0C4B1A05D0
:10306000EFD04F87B70700202399A70023900400D3
:10307000232004007DBF83A781AA850723A4F1AA8A
:1030800003C7E1E09387E1E011C703D74182050759
:103090002392E182054798A3B7F700E023A2070037
:1030A00073002030EFC2DFFF371402401C403707A7
:1030B000FFF8414593E717001CC05C40F98F5CC0E6
:1030C0001C403707F7FE7D17F98F1CC01C403707DF
:1030D000FCFF7D17F98F1CC05C4041777D17F98F8D
:1030E0005CC0B7079F001CC4612B1C4C93E7070210
:1030F0001CCCB717014003A70740938607401377FE
:10310000F7F023A0E74003A707401367070823A0B1
:10311000E74089479CCAB7F7FF1F03C5477D930760
:10312000F00F6304F5007D89A12BB7270240984377
:10313000C176FD16719B98C398431367170098C317
:10314000B7170240D843D8C3D843758FD8C3D843E4
:10315000B7060001D8C39843558F98C39843931678
:103160006700E3DD06FED843B7160240719BD8C363
:10317000D84313672700D8C32147DC42B18BE39EB5
:10318000E7FE6FC09FF2EFC2BFF1371702405C430A
:10319000370400209146B18B130444026385D700A5
:1031A000A1466382D704B7376E01938707601CC0BE
:1031B000B7160240DC420840918313F7F700B707C7
:1031C000002093874701BA978C23DC4293F5F50FD3
:1031D00093F707083357B50081E7EFC0BFEF2A87A1
:1031E00018C06FC09FEC5C43B777DC02938707C0C1
:1031F0007DBFEFC2FFEA139445000D8C0A040D8CCD
:103200001A040D8CA1652E944180AA84A285328572
:10321000EFC05FEAFE2041816397A7009A24B307BD
:10322000A4406301F70242054181098C4204BE209B
:103230004180EAA082A46373F500AAA0DE20637334
:10324000F400C2A06FC07FE601A097D1FF1F938159
:10325000E15D138181FD170500001305A57F97D55A
:10326000FF1F938565DA17D6FF1F130626DC63FA66
:10327000C5008322050023A0550011059105E3EA4E
:10328000C5FE17D5FF1F130565DA938501EA63773D
:10329000B500232005001105E36DB5FEB72200003F
:1032A00093820288739002308D427390428097D24D
:1032B000FFFF938222D593E2320073905230EFF0F9
:1032C0007FDE97F2FFFF938202C473901234730083
:1032D0002030B727014093870740631EF500EFC2F7
:1032E0003FDC854513050020212981451305002079
:1032F00001296FC09FDB82805C413707F1FF130714
:10330000F7EF7D8FDC419441A207D58FD98F5CC147
:103310001C4537F7F1FF1307D77FD4457D8F9C49B4
:10332000D58F94458606D58FD98F1CC55C55370738
:1033300010FF7D177D8FDC29FD1793F7F70FD2075C
:10334000D98F5CD582801C4589C593E717001CC5C1
:103350008280F99BEDBF1C4589C593E707101CC50A
:10336000828093F7F7EFE5BF1C4593E787001CC504
:10337000828008450D81058982801C4593E74700BE
:103380001CC5828008450981058982801C4591C53C
:1033900037075000D98F1CC582803707B0FF7D17D3
:1033A000F98FD5BFA54763F8B704138765FF931757
:1033B00017008322C500BA971D433313F30013434C
:1033C000F3FF33735300B397F600B3E767005CC5B0
:1033D000994763E3C7047D16931726003E96585914
:1033E000FD47B397C70093C7F7FFF98FB395C500A3
:1033F000DD8D4CD982809397150003230501AE978C
:103400001D473317F7001347F7FF33776700B3976C
:10341000F6005D8F18C96DBFB14763E2C70265163C
:10342000931726003E961859FD47B397C70093C7D8
:10343000F7FFF98FB395C500DD8D0CD982804D164D
:103440001317260054553A96FD47B397C70093C704
:10345000F7FFF58FB395C500DD8D4CD582801C41FB
:1034600041677917F98F1CC123200500232205002D
:1034700023240500B7070240232605001387870091
:103480006317E500D8431367F700D8C3828013871A
:10349000C7016316E500D8431367070FFDB713870D
:1034A00007036318E500D8438566938606F0558FB9
:1034B000E9BF138747046315E500D843BD66C5BF60
:1034C000138787056316E500D843B7060F00C5B715
:1034D0001387C7066316E500D843B706F000C1BFDF
:1034E00013870708E314E5FAD843B706000FC1B7FE
:1034F0001841E177BD0794517D8F9C45D58F944944
:10350000D58FD449D58F944DD58FD44DD58FD451E7
:10351000D58F9455D58FD98F1CC1DC455CC19C419A
:103520001CC5DC415CC582801C4189C593E717003E
:103530001CC1828041677917F98FDDBFB7076745E6
:1035400037270240938737125CC3B797EFCD938735
:10355000B79A5CC38280372702401C4B93E7070869
:103560001CCB8280EFC2DFB371112AC0EFF01FFDC8
:10357000B7066745B72702409386361294D7B796A9
:10358000EFCD9386B69A94D7D44771767D160245CF
:10359000F18ED4C711676315E500D847498FD8C7A6
:1035A000EFF07FFB11016FC05FB0944593F7060108
:1035B00093F2F60081C7DC41B3E2F20083D3050049
:1035C00093F7F30FA5C303230500611122C226C0A0
:1035D0008147130480029304800405473316F700E3
:1035E00033F7C3006312E602939527003D47331774
:1035F000B7001347F7FF33736700B395B20033E3A7
:103600006500639D860050C985072147E397E7FC65
:10361000124423206500824421018280E39696FEB5
:1036200010C9DDB7828023ACA1E8828083A681E93E
:10363000854718216390F6021C31639CD7023C2118
:103640009A0793E707F8B7E600E093F7F70FBA9603
:103650002380F6408546935757003397E600544140
:1036600089CE938707048A07B7E600E0B69798C328
:103670008280EDF33C219A07F9B793870706E5B7F7
:10368000371702401C430E0593F777F05D8D08C392
:103690008280B7160240DC4241771307F77FF98F2B
:1036A0005D8DC8C2828099C5371702405C4B5D8D25
:1036B00048CB8280B7170240D84B1345F5FF798D70
:1036C000C8CB828099C5371702401C4F5D8D08CF4B
:1036D0008280B7170240984F1345F5FF798D88CF48
:1036E000828099C5371702405C4F5D8D48CF82803C
:1036F000B7170240D84F1345F5FF798DC8CF8280A8
:1037000099C5371702405C475D8D48C78280B7175F
:103710000240D8471345F5FF798DC8C78280371717
:1037200002405C53B7060001D58F5CD382801E2116
:1037300037370140130707C0C207C1836306E5009E
:10374000370700406316E500BA2193F7F7F8D98FE1
:10375000FA2193F7F7CFC207C183D98F1EA1DE21CB
:103760005EB59E211EB5B7370140938707C063142D
:10377000F5009C251EB985475EA982801E319221E5
:1037800003D32500C207C183F99BC207C1831EB1C1
:103790001E3156211A2DC207C18342074183137778
:1037A000C7F8518F9225F59BC20633666600D18F0C
:1037B00037360140130606C0C1826310C502B22528
:1037C000DD9B03D3E500D18FD221ED9B93F6F6CF9D
:1037D000D18FD22533666600D18E56A11AADFA215B
:1037E00058D91EB182801E2189C593E717001EA1FA
:1037F0008280C207C183F99BC207C183CDBF8357B3
:10380000450491C52167D98F2312F5048280C6072C
:10381000C583DDBF1E2189C593E707081EA18280ED
:10382000C207C18393F7F7F7C207C183C5BF1E2D37
:10383000C207C183DD9BDD8D0EAD828093C5F5FF90
:10384000C205C1810EA98280EFC29F85B707002003
:1038500003A54702B7157A0093850520EFC09F871F
:103860001375F50F238FA1E893175500898F8A07E9
:103870003E950E05239EA1E86FC03F83B3C7A50008
:103880008D8B3307C50081E78D4763E7C702AA87A1
:10389000637EE50A942185078505A38FD7FEE3EBB8
:1038A000E7FE8280942185078505A38FD7FEE3EB91
:1038B000E7FE02441101828093763500AA8789CA07
:1038C000942185078505A38FD7FE93F63700C5BFE2
:1038D0009376C7FF138606FE63F5C706711122C0F3
:1038E000C04903A3050083A38500C0CB804D23A05E
:1038F000670003A3450080CFC04D23A2670083A2C9
:10390000C50003A3050193854502C0CF03A4C5FFED
:1039100023A4770023A6570023A8670093874702B4
:1039200023AE87FEE3EEC7FAE3F3D7F890419107A1
:10393000910523AEC7FECDBF90419107910523AEFF
:10394000C7FEE3EBD7FEE3E7E7F482808280000066
:10395000C8080000E2080000F80800000E09000096
:103960001E090000BA0900002609000042090000F3
:103970005A090000780900008E090000A40900001F
:1039800000000100030007000F001F003F007F0040
:10399000FF00FF01FF03FF07FF0FFF1FFF3FFF7F38
:1039A000FFFF000000000100030007000F001F00E0
:1039B0003F007F00FF00FF01FF03FF07FF0FFF1F16
:1039C000FF3FFF7FFFFF00000C12000046120000C7
:1039D0005012000058120000621200006C12000029
:1039E000741200007C12000096120000AC1200005D
:1039F000C2120000A6150000B4150000F415000066
:103A0000101600002816000038160000521600009C
:103A10005216000052160000521600004A1600000E
:103A20000200040008001000200040008000010097
:103A30003000000000030000003000000000030020
:103A40000000300000000003000000300300000010
:103A500001C000000100000040060020FFFF0080C0
:103A6000010203040506070801020304050607080E
:043A7000006CDC0208
:023A7400000050
:00000001FF
